{
  "_format": "hh-sol-artifact-1",
  "contractName": "MyEpicGame",
  "sourceName": "contracts/MyEpicGame.sol",
  "abi": [
    {
      "inputs": [
        {
          "internalType": "string[]",
          "name": "characterNames",
          "type": "string[]"
        },
        {
          "internalType": "string[]",
          "name": "characterImageURIs",
          "type": "string[]"
        },
        {
          "internalType": "uint256[]",
          "name": "characterHp",
          "type": "uint256[]"
        },
        {
          "internalType": "uint256[]",
          "name": "characterAttackDamage",
          "type": "uint256[]"
        },
        {
          "internalType": "string",
          "name": "bossName",
          "type": "string"
        },
        {
          "internalType": "string",
          "name": "bossImageURI",
          "type": "string"
        },
        {
          "internalType": "uint256",
          "name": "bossHp",
          "type": "uint256"
        },
        {
          "internalType": "uint256",
          "name": "bossAttackDamage",
          "type": "uint256"
        }
      ],
      "stateMutability": "nonpayable",
      "type": "constructor"
    },
    {
      "anonymous": false,
      "inputs": [
        {
          "indexed": true,
          "internalType": "address",
          "name": "owner",
          "type": "address"
        },
        {
          "indexed": true,
          "internalType": "address",
          "name": "approved",
          "type": "address"
        },
        {
          "indexed": true,
          "internalType": "uint256",
          "name": "tokenId",
          "type": "uint256"
        }
      ],
      "name": "Approval",
      "type": "event"
    },
    {
      "anonymous": false,
      "inputs": [
        {
          "indexed": true,
          "internalType": "address",
          "name": "owner",
          "type": "address"
        },
        {
          "indexed": true,
          "internalType": "address",
          "name": "operator",
          "type": "address"
        },
        {
          "indexed": false,
          "internalType": "bool",
          "name": "approved",
          "type": "bool"
        }
      ],
      "name": "ApprovalForAll",
      "type": "event"
    },
    {
      "anonymous": false,
      "inputs": [
        {
          "indexed": false,
          "internalType": "uint256",
          "name": "newBossHp",
          "type": "uint256"
        },
        {
          "indexed": false,
          "internalType": "uint256",
          "name": "newPlayerHp",
          "type": "uint256"
        }
      ],
      "name": "AttackComplete",
      "type": "event"
    },
    {
      "anonymous": false,
      "inputs": [
        {
          "indexed": false,
          "internalType": "address",
          "name": "sender",
          "type": "address"
        },
        {
          "indexed": false,
          "internalType": "uint256",
          "name": "tokenId",
          "type": "uint256"
        },
        {
          "indexed": false,
          "internalType": "uint256",
          "name": "characterIndex",
          "type": "uint256"
        }
      ],
      "name": "CharacterNFTMinted",
      "type": "event"
    },
    {
      "anonymous": false,
      "inputs": [
        {
          "indexed": true,
          "internalType": "address",
          "name": "from",
          "type": "address"
        },
        {
          "indexed": true,
          "internalType": "address",
          "name": "to",
          "type": "address"
        },
        {
          "indexed": true,
          "internalType": "uint256",
          "name": "tokenId",
          "type": "uint256"
        }
      ],
      "name": "Transfer",
      "type": "event"
    },
    {
      "inputs": [
        {
          "internalType": "address",
          "name": "to",
          "type": "address"
        },
        {
          "internalType": "uint256",
          "name": "tokenId",
          "type": "uint256"
        }
      ],
      "name": "approve",
      "outputs": [],
      "stateMutability": "nonpayable",
      "type": "function"
    },
    {
      "inputs": [],
      "name": "attackBoss",
      "outputs": [],
      "stateMutability": "nonpayable",
      "type": "function"
    },
    {
      "inputs": [
        {
          "internalType": "address",
          "name": "owner",
          "type": "address"
        }
      ],
      "name": "balanceOf",
      "outputs": [
        {
          "internalType": "uint256",
          "name": "",
          "type": "uint256"
        }
      ],
      "stateMutability": "view",
      "type": "function"
    },
    {
      "inputs": [],
      "name": "bigBoss",
      "outputs": [
        {
          "internalType": "string",
          "name": "name",
          "type": "string"
        },
        {
          "internalType": "string",
          "name": "imageURI",
          "type": "string"
        },
        {
          "internalType": "uint256",
          "name": "hp",
          "type": "uint256"
        },
        {
          "internalType": "uint256",
          "name": "maxHp",
          "type": "uint256"
        },
        {
          "internalType": "uint256",
          "name": "attackDamage",
          "type": "uint256"
        }
      ],
      "stateMutability": "view",
      "type": "function"
    },
    {
      "inputs": [],
      "name": "checkIfUserHasNFT",
      "outputs": [
        {
          "components": [
            {
              "internalType": "uint256",
              "name": "characterIndex",
              "type": "uint256"
            },
            {
              "internalType": "string",
              "name": "name",
              "type": "string"
            },
            {
              "internalType": "string",
              "name": "imageURI",
              "type": "string"
            },
            {
              "internalType": "uint256",
              "name": "hp",
              "type": "uint256"
            },
            {
              "internalType": "uint256",
              "name": "maxHp",
              "type": "uint256"
            },
            {
              "internalType": "uint256",
              "name": "attackDamage",
              "type": "uint256"
            }
          ],
          "internalType": "struct MyEpicGame.CharacterAttributes",
          "name": "",
          "type": "tuple"
        }
      ],
      "stateMutability": "view",
      "type": "function"
    },
    {
      "inputs": [],
      "name": "getAllDefaultCharacters",
      "outputs": [
        {
          "components": [
            {
              "internalType": "uint256",
              "name": "characterIndex",
              "type": "uint256"
            },
            {
              "internalType": "string",
              "name": "name",
              "type": "string"
            },
            {
              "internalType": "string",
              "name": "imageURI",
              "type": "string"
            },
            {
              "internalType": "uint256",
              "name": "hp",
              "type": "uint256"
            },
            {
              "internalType": "uint256",
              "name": "maxHp",
              "type": "uint256"
            },
            {
              "internalType": "uint256",
              "name": "attackDamage",
              "type": "uint256"
            }
          ],
          "internalType": "struct MyEpicGame.CharacterAttributes[]",
          "name": "",
          "type": "tuple[]"
        }
      ],
      "stateMutability": "view",
      "type": "function"
    },
    {
      "inputs": [
        {
          "internalType": "uint256",
          "name": "tokenId",
          "type": "uint256"
        }
      ],
      "name": "getApproved",
      "outputs": [
        {
          "internalType": "address",
          "name": "",
          "type": "address"
        }
      ],
      "stateMutability": "view",
      "type": "function"
    },
    {
      "inputs": [],
      "name": "getBigBoss",
      "outputs": [
        {
          "components": [
            {
              "internalType": "string",
              "name": "name",
              "type": "string"
            },
            {
              "internalType": "string",
              "name": "imageURI",
              "type": "string"
            },
            {
              "internalType": "uint256",
              "name": "hp",
              "type": "uint256"
            },
            {
              "internalType": "uint256",
              "name": "maxHp",
              "type": "uint256"
            },
            {
              "internalType": "uint256",
              "name": "attackDamage",
              "type": "uint256"
            }
          ],
          "internalType": "struct MyEpicGame.BigBoss",
          "name": "",
          "type": "tuple"
        }
      ],
      "stateMutability": "view",
      "type": "function"
    },
    {
      "inputs": [
        {
          "internalType": "address",
          "name": "owner",
          "type": "address"
        },
        {
          "internalType": "address",
          "name": "operator",
          "type": "address"
        }
      ],
      "name": "isApprovedForAll",
      "outputs": [
        {
          "internalType": "bool",
          "name": "",
          "type": "bool"
        }
      ],
      "stateMutability": "view",
      "type": "function"
    },
    {
      "inputs": [
        {
          "internalType": "uint256",
          "name": "_characterIndex",
          "type": "uint256"
        }
      ],
      "name": "mintCharacterNFT",
      "outputs": [],
      "stateMutability": "nonpayable",
      "type": "function"
    },
    {
      "inputs": [],
      "name": "name",
      "outputs": [
        {
          "internalType": "string",
          "name": "",
          "type": "string"
        }
      ],
      "stateMutability": "view",
      "type": "function"
    },
    {
      "inputs": [
        {
          "internalType": "uint256",
          "name": "",
          "type": "uint256"
        }
      ],
      "name": "nftHolderAttributes",
      "outputs": [
        {
          "internalType": "uint256",
          "name": "characterIndex",
          "type": "uint256"
        },
        {
          "internalType": "string",
          "name": "name",
          "type": "string"
        },
        {
          "internalType": "string",
          "name": "imageURI",
          "type": "string"
        },
        {
          "internalType": "uint256",
          "name": "hp",
          "type": "uint256"
        },
        {
          "internalType": "uint256",
          "name": "maxHp",
          "type": "uint256"
        },
        {
          "internalType": "uint256",
          "name": "attackDamage",
          "type": "uint256"
        }
      ],
      "stateMutability": "view",
      "type": "function"
    },
    {
      "inputs": [
        {
          "internalType": "uint256",
          "name": "tokenId",
          "type": "uint256"
        }
      ],
      "name": "ownerOf",
      "outputs": [
        {
          "internalType": "address",
          "name": "",
          "type": "address"
        }
      ],
      "stateMutability": "view",
      "type": "function"
    },
    {
      "inputs": [
        {
          "internalType": "address",
          "name": "from",
          "type": "address"
        },
        {
          "internalType": "address",
          "name": "to",
          "type": "address"
        },
        {
          "internalType": "uint256",
          "name": "tokenId",
          "type": "uint256"
        }
      ],
      "name": "safeTransferFrom",
      "outputs": [],
      "stateMutability": "nonpayable",
      "type": "function"
    },
    {
      "inputs": [
        {
          "internalType": "address",
          "name": "from",
          "type": "address"
        },
        {
          "internalType": "address",
          "name": "to",
          "type": "address"
        },
        {
          "internalType": "uint256",
          "name": "tokenId",
          "type": "uint256"
        },
        {
          "internalType": "bytes",
          "name": "data",
          "type": "bytes"
        }
      ],
      "name": "safeTransferFrom",
      "outputs": [],
      "stateMutability": "nonpayable",
      "type": "function"
    },
    {
      "inputs": [
        {
          "internalType": "address",
          "name": "operator",
          "type": "address"
        },
        {
          "internalType": "bool",
          "name": "approved",
          "type": "bool"
        }
      ],
      "name": "setApprovalForAll",
      "outputs": [],
      "stateMutability": "nonpayable",
      "type": "function"
    },
    {
      "inputs": [
        {
          "internalType": "bytes4",
          "name": "interfaceId",
          "type": "bytes4"
        }
      ],
      "name": "supportsInterface",
      "outputs": [
        {
          "internalType": "bool",
          "name": "",
          "type": "bool"
        }
      ],
      "stateMutability": "view",
      "type": "function"
    },
    {
      "inputs": [],
      "name": "symbol",
      "outputs": [
        {
          "internalType": "string",
          "name": "",
          "type": "string"
        }
      ],
      "stateMutability": "view",
      "type": "function"
    },
    {
      "inputs": [
        {
          "internalType": "uint256",
          "name": "_tokenId",
          "type": "uint256"
        }
      ],
      "name": "tokenURI",
      "outputs": [
        {
          "internalType": "string",
          "name": "",
          "type": "string"
        }
      ],
      "stateMutability": "view",
      "type": "function"
    },
    {
      "inputs": [
        {
          "internalType": "address",
          "name": "from",
          "type": "address"
        },
        {
          "internalType": "address",
          "name": "to",
          "type": "address"
        },
        {
          "internalType": "uint256",
          "name": "tokenId",
          "type": "uint256"
        }
      ],
      "name": "transferFrom",
      "outputs": [],
      "stateMutability": "nonpayable",
      "type": "function"
    }
  ],
  "bytecode": "0x60806040523480156200001157600080fd5b506040516200574f3803806200574f833981810160405281019062000037919062000a85565b6040518060400160405280600e81526020017f5769636b65642057697a617264730000000000000000000000000000000000008152506040518060400160405280600481526020017f5749434b000000000000000000000000000000000000000000000000000000008152508160009080519060200190620000bb929190620007ed565b508060019080519060200190620000d4929190620007ed565b5050506040518060a0016040528085815260200184815260200183815260200183815260200182815250600860008201518160000190805190602001906200011e929190620007ed565b5060208201518160010190805190602001906200013d929190620007ed565b50604082015181600201556060820151816003015560808201518160040155905050620002c06040518060600160405280603381526020016200571c60339139600860000180546200018f9062000e08565b80601f0160208091040260200160405190810160405280929190818152602001828054620001bd9062000e08565b80156200020e5780601f10620001e2576101008083540402835291602001916200020e565b820191906000526020600020905b815481529060010190602001808311620001f057829003601f168201915b5050505050600860020154600860010180546200022b9062000e08565b80601f0160208091040260200160405190810160405280929190818152602001828054620002599062000e08565b8015620002aa5780601f106200027e57610100808354040283529160200191620002aa565b820191906000526020600020905b8154815290600101906020018083116200028c57829003601f168201915b50505050506200070260201b62001b261760201c565b60005b8851811015620006dc5760076040518060c001604052808381526020018b84815181106200031a577f4e487b7100000000000000000000000000000000000000000000000000000000600052603260045260246000fd5b602002602001015181526020018a848151811062000361577f4e487b7100000000000000000000000000000000000000000000000000000000600052603260045260246000fd5b60200260200101518152602001898481518110620003a8577f4e487b7100000000000000000000000000000000000000000000000000000000600052603260045260246000fd5b60200260200101518152602001898481518110620003ef577f4e487b7100000000000000000000000000000000000000000000000000000000600052603260045260246000fd5b6020026020010151815260200188848151811062000436577f4e487b7100000000000000000000000000000000000000000000000000000000600052603260045260246000fd5b6020026020010151815250908060018154018082558091505060019003906000526020600020906006020160009091909190915060008201518160000155602082015181600101908051906020019062000492929190620007ed565b506040820151816002019080519060200190620004b1929190620007ed565b50606082015181600301556080820151816004015560a0820151816005015550506000600782815481106200050f577f4e487b7100000000000000000000000000000000000000000000000000000000600052603260045260246000fd5b90600052602060002090600602016040518060c001604052908160008201548152602001600182018054620005449062000e08565b80601f0160208091040260200160405190810160405280929190818152602001828054620005729062000e08565b8015620005c35780601f106200059757610100808354040283529160200191620005c3565b820191906000526020600020905b815481529060010190602001808311620005a557829003601f168201915b50505050508152602001600282018054620005de9062000e08565b80601f01602080910402602001604051908101604052809291908181526020018280546200060c9062000e08565b80156200065d5780601f1062000631576101008083540402835291602001916200065d565b820191906000526020600020905b8154815290600101906020018083116200063f57829003601f168201915b5050505050815260200160038201548152602001600482015481526020016005820154815250509050620006c46040518060600160405280602a8152602001620056f2602a91398260200151836060015184604001516200070260201b62001b261760201c565b50600181620006d4919062000d6b565b9050620002c3565b50620006f46006620007ae60201b62001bc81760201c565b505050505050505062000f2c565b620007a8848484846040516024016200071f949392919062000c30565b6040516020818303038152906040527f8d142cdd000000000000000000000000000000000000000000000000000000007bffffffffffffffffffffffffffffffffffffffffffffffffffffffff19166020820180517bffffffffffffffffffffffffffffffffffffffffffffffffffffffff8381831617835250505050620007c460201b60201c565b50505050565b6001816000016000828254019250508190555050565b60008151905060006a636f6e736f6c652e6c6f679050602083016000808483855afa5050505050565b828054620007fb9062000e08565b90600052602060002090601f0160209004810192826200081f57600085556200086b565b82601f106200083a57805160ff19168380011785556200086b565b828001600101855582156200086b579182015b828111156200086a5782518255916020019190600101906200084d565b5b5090506200087a91906200087e565b5090565b5b80821115620008995760008160009055506001016200087f565b5090565b6000620008b4620008ae8462000cbb565b62000c92565b90508083825260208201905082856020860282011115620008d457600080fd5b60005b858110156200092357815167ffffffffffffffff811115620008f857600080fd5b80860162000907898262000a41565b85526020850194506020840193505050600181019050620008d7565b5050509392505050565b6000620009446200093e8462000cea565b62000c92565b905080838252602082019050828560208602820111156200096457600080fd5b60005b858110156200099857816200097d888262000a6e565b84526020840193506020830192505060018101905062000967565b5050509392505050565b6000620009b9620009b38462000d19565b62000c92565b905082815260208101848484011115620009d257600080fd5b620009df84828562000dd2565b509392505050565b600082601f830112620009f957600080fd5b815162000a0b8482602086016200089d565b91505092915050565b600082601f83011262000a2657600080fd5b815162000a388482602086016200092d565b91505092915050565b600082601f83011262000a5357600080fd5b815162000a65848260208601620009a2565b91505092915050565b60008151905062000a7f8162000f12565b92915050565b600080600080600080600080610100898b03121562000aa357600080fd5b600089015167ffffffffffffffff81111562000abe57600080fd5b62000acc8b828c01620009e7565b985050602089015167ffffffffffffffff81111562000aea57600080fd5b62000af88b828c01620009e7565b975050604089015167ffffffffffffffff81111562000b1657600080fd5b62000b248b828c0162000a14565b965050606089015167ffffffffffffffff81111562000b4257600080fd5b62000b508b828c0162000a14565b955050608089015167ffffffffffffffff81111562000b6e57600080fd5b62000b7c8b828c0162000a41565b94505060a089015167ffffffffffffffff81111562000b9a57600080fd5b62000ba88b828c0162000a41565b93505060c062000bbb8b828c0162000a6e565b92505060e062000bce8b828c0162000a6e565b9150509295985092959890939650565b600062000beb8262000d4f565b62000bf7818562000d5a565b935062000c0981856020860162000dd2565b62000c148162000f01565b840191505092915050565b62000c2a8162000dc8565b82525050565b6000608082019050818103600083015262000c4c818762000bde565b9050818103602083015262000c62818662000bde565b905062000c73604083018562000c1f565b818103606083015262000c87818462000bde565b905095945050505050565b600062000c9e62000cb1565b905062000cac828262000e3e565b919050565b6000604051905090565b600067ffffffffffffffff82111562000cd95762000cd862000ed2565b5b602082029050602081019050919050565b600067ffffffffffffffff82111562000d085762000d0762000ed2565b5b602082029050602081019050919050565b600067ffffffffffffffff82111562000d375762000d3662000ed2565b5b62000d428262000f01565b9050602081019050919050565b600081519050919050565b600082825260208201905092915050565b600062000d788262000dc8565b915062000d858362000dc8565b9250827fffffffffffffffffffffffffffffffffffffffffffffffffffffffffffffffff0382111562000dbd5762000dbc62000e74565b5b828201905092915050565b6000819050919050565b60005b8381101562000df257808201518184015260208101905062000dd5565b8381111562000e02576000848401525b50505050565b6000600282049050600182168062000e2157607f821691505b6020821081141562000e385762000e3762000ea3565b5b50919050565b62000e498262000f01565b810181811067ffffffffffffffff8211171562000e6b5762000e6a62000ed2565b5b80604052505050565b7f4e487b7100000000000000000000000000000000000000000000000000000000600052601160045260246000fd5b7f4e487b7100000000000000000000000000000000000000000000000000000000600052602260045260246000fd5b7f4e487b7100000000000000000000000000000000000000000000000000000000600052604160045260246000fd5b6000601f19601f8301169050919050565b62000f1d8162000dc8565b811462000f2957600080fd5b50565b6147b68062000f3c6000396000f3fe608060405234801561001057600080fd5b506004361061012c5760003560e01c806398da4c95116100ad578063c87b56dd11610071578063c87b56dd1461034c578063c8cf27f41461037c578063d4f24c5b1461039a578063e985e9c5146103a4578063f8b81ef7146103d45761012c565b806398da4c951461029f578063a22cb465146102d4578063a9c32679146102f0578063b88d4fde14610312578063b953084e1461032e5761012c565b806323b872dd116100f457806323b872dd146101e957806342842e0e146102055780636352211e1461022157806370a082311461025157806395d89b41146102815761012c565b806301ffc9a7146101315780630665f9611461016157806306fdde031461017f578063081812fc1461019d578063095ea7b3146101cd575b600080fd5b61014b60048036038101906101469190612f9b565b6103f0565b60405161015891906137ba565b60405180910390f35b6101696104d2565b6040516101769190613b13565b60405180910390f35b61018761062e565b60405161019491906137d5565b60405180910390f35b6101b760048036038101906101b29190612fed565b6106c0565b6040516101c491906136fa565b60405180910390f35b6101e760048036038101906101e29190612f5f565b610706565b005b61020360048036038101906101fe9190612e59565b61081e565b005b61021f600480360381019061021a9190612e59565b61087e565b005b61023b60048036038101906102369190612fed565b61089e565b60405161024891906136fa565b60405180910390f35b61026b60048036038101906102669190612df4565b610950565b6040516102789190613b57565b60405180910390f35b610289610a08565b60405161029691906137d5565b60405180910390f35b6102b960048036038101906102b49190612fed565b610a9a565b6040516102cb96959493929190613b72565b60405180910390f35b6102ee60048036038101906102e99190612f23565b610be6565b005b6102f8610bfc565b6040516103099594939291906138a4565b60405180910390f35b61032c60048036038101906103279190612ea8565b610d30565b005b610336610d92565b6040516103439190613798565b60405180910390f35b61036660048036038101906103619190612fed565b610f3d565b60405161037391906137d5565b60405180910390f35b610384611158565b6040516103919190613b35565b60405180910390f35b6103a2611330565b005b6103be60048036038101906103b99190612e1d565b61169e565b6040516103cb91906137ba565b60405180910390f35b6103ee60048036038101906103e99190612fed565b611732565b005b60007f80ac58cd000000000000000000000000000000000000000000000000000000007bffffffffffffffffffffffffffffffffffffffffffffffffffffffff1916827bffffffffffffffffffffffffffffffffffffffffffffffffffffffff191614806104bb57507f5b5e139f000000000000000000000000000000000000000000000000000000007bffffffffffffffffffffffffffffffffffffffffffffffffffffffff1916827bffffffffffffffffffffffffffffffffffffffffffffffffffffffff1916145b806104cb57506104ca82611bde565b5b9050919050565b6104da612c1b565b60086040518060a00160405290816000820180546104f790613eb8565b80601f016020809104026020016040519081016040528092919081815260200182805461052390613eb8565b80156105705780601f1061054557610100808354040283529160200191610570565b820191906000526020600020905b81548152906001019060200180831161055357829003601f168201915b5050505050815260200160018201805461058990613eb8565b80601f01602080910402602001604051908101604052809291908181526020018280546105b590613eb8565b80156106025780601f106105d757610100808354040283529160200191610602565b820191906000526020600020905b8154815290600101906020018083116105e557829003601f168201915b505050505081526020016002820154815260200160038201548152602001600482015481525050905090565b60606000805461063d90613eb8565b80601f016020809104026020016040519081016040528092919081815260200182805461066990613eb8565b80156106b65780601f1061068b576101008083540402835291602001916106b6565b820191906000526020600020905b81548152906001019060200180831161069957829003601f168201915b5050505050905090565b60006106cb82611c48565b6004600083815260200190815260200160002060009054906101000a900473ffffffffffffffffffffffffffffffffffffffff169050919050565b60006107118261089e565b90508073ffffffffffffffffffffffffffffffffffffffff168373ffffffffffffffffffffffffffffffffffffffff161415610782576040517f08c379a000000000000000000000000000000000000000000000000000000000815260040161077990613ab3565b60405180910390fd5b8073ffffffffffffffffffffffffffffffffffffffff166107a1611c93565b73ffffffffffffffffffffffffffffffffffffffff1614806107d057506107cf816107ca611c93565b61169e565b5b61080f576040517f08c379a000000000000000000000000000000000000000000000000000000000815260040161080690613a53565b60405180910390fd5b6108198383611c9b565b505050565b61082f610829611c93565b82611d54565b61086e576040517f08c379a000000000000000000000000000000000000000000000000000000000815260040161086590613af3565b60405180910390fd5b610879838383611de9565b505050565b61089983838360405180602001604052806000815250610d30565b505050565b6000806002600084815260200190815260200160002060009054906101000a900473ffffffffffffffffffffffffffffffffffffffff169050600073ffffffffffffffffffffffffffffffffffffffff168173ffffffffffffffffffffffffffffffffffffffff161415610947576040517f08c379a000000000000000000000000000000000000000000000000000000000815260040161093e90613a93565b60405180910390fd5b80915050919050565b60008073ffffffffffffffffffffffffffffffffffffffff168273ffffffffffffffffffffffffffffffffffffffff1614156109c1576040517f08c379a00000000000000000000000000000000000000000000000000000000081526004016109b890613a13565b60405180910390fd5b600360008373ffffffffffffffffffffffffffffffffffffffff1673ffffffffffffffffffffffffffffffffffffffff168152602001908152602001600020549050919050565b606060018054610a1790613eb8565b80601f0160208091040260200160405190810160405280929190818152602001828054610a4390613eb8565b8015610a905780601f10610a6557610100808354040283529160200191610a90565b820191906000526020600020905b815481529060010190602001808311610a7357829003601f168201915b5050505050905090565b600d602052806000526040600020600091509050806000015490806001018054610ac390613eb8565b80601f0160208091040260200160405190810160405280929190818152602001828054610aef90613eb8565b8015610b3c5780601f10610b1157610100808354040283529160200191610b3c565b820191906000526020600020905b815481529060010190602001808311610b1f57829003601f168201915b505050505090806002018054610b5190613eb8565b80601f0160208091040260200160405190810160405280929190818152602001828054610b7d90613eb8565b8015610bca5780601f10610b9f57610100808354040283529160200191610bca565b820191906000526020600020905b815481529060010190602001808311610bad57829003601f168201915b5050505050908060030154908060040154908060050154905086565b610bf8610bf1611c93565b8383612050565b5050565b6008806000018054610c0d90613eb8565b80601f0160208091040260200160405190810160405280929190818152602001828054610c3990613eb8565b8015610c865780601f10610c5b57610100808354040283529160200191610c86565b820191906000526020600020905b815481529060010190602001808311610c6957829003601f168201915b505050505090806001018054610c9b90613eb8565b80601f0160208091040260200160405190810160405280929190818152602001828054610cc790613eb8565b8015610d145780601f10610ce957610100808354040283529160200191610d14565b820191906000526020600020905b815481529060010190602001808311610cf757829003601f168201915b5050505050908060020154908060030154908060040154905085565b610d41610d3b611c93565b83611d54565b610d80576040517f08c379a0000000000000000000000000000000000000000000000000000000008152600401610d7790613af3565b60405180910390fd5b610d8c848484846121bd565b50505050565b60606007805480602002602001604051908101604052809291908181526020016000905b82821015610f3457838290600052602060002090600602016040518060c001604052908160008201548152602001600182018054610df390613eb8565b80601f0160208091040260200160405190810160405280929190818152602001828054610e1f90613eb8565b8015610e6c5780601f10610e4157610100808354040283529160200191610e6c565b820191906000526020600020905b815481529060010190602001808311610e4f57829003601f168201915b50505050508152602001600282018054610e8590613eb8565b80601f0160208091040260200160405190810160405280929190818152602001828054610eb190613eb8565b8015610efe5780601f10610ed357610100808354040283529160200191610efe565b820191906000526020600020905b815481529060010190602001808311610ee157829003601f168201915b50505050508152602001600382015481526020016004820154815260200160058201548152505081526020019060010190610db6565b50505050905090565b60606000600d60008481526020019081526020016000206040518060c001604052908160008201548152602001600182018054610f7990613eb8565b80601f0160208091040260200160405190810160405280929190818152602001828054610fa590613eb8565b8015610ff25780601f10610fc757610100808354040283529160200191610ff2565b820191906000526020600020905b815481529060010190602001808311610fd557829003601f168201915b5050505050815260200160028201805461100b90613eb8565b80601f016020809104026020016040519081016040528092919081815260200182805461103790613eb8565b80156110845780601f1061105957610100808354040283529160200191611084565b820191906000526020600020905b81548152906001019060200180831161106757829003601f168201915b505050505081526020016003820154815260200160048201548152602001600582015481525050905060006110bc8260600151612219565b905060006110cd8360800151612219565b905060006110de8460a00151612219565b9050600061112485602001516110f389612219565b876040015187878760405160200161111096959493929190613633565b6040516020818303038152906040526123c6565b905060008160405160200161113991906136d8565b6040516020818303038152906040529050809650505050505050919050565b611160612c4a565b6000600e60003373ffffffffffffffffffffffffffffffffffffffff1673ffffffffffffffffffffffffffffffffffffffff168152602001908152602001600020549050600081111561131f57600d60008281526020019081526020016000206040518060c0016040529081600082015481526020016001820180546111e590613eb8565b80601f016020809104026020016040519081016040528092919081815260200182805461121190613eb8565b801561125e5780601f106112335761010080835404028352916020019161125e565b820191906000526020600020905b81548152906001019060200180831161124157829003601f168201915b5050505050815260200160028201805461127790613eb8565b80601f01602080910402602001604051908101604052809291908181526020018280546112a390613eb8565b80156112f05780601f106112c5576101008083540402835291602001916112f0565b820191906000526020600020905b8154815290600101906020018083116112d357829003601f168201915b50505050508152602001600382015481526020016004820154815260200160058201548152505091505061132d565b611327612c4a565b80925050505b90565b6000600e60003373ffffffffffffffffffffffffffffffffffffffff1673ffffffffffffffffffffffffffffffffffffffff1681526020019081526020016000205490506000600d60008381526020019081526020016000209050611443604051806080016040528060508152602001614731605091398260010180546113b690613eb8565b80601f01602080910402602001604051908101604052809291908181526020018280546113e290613eb8565b801561142f5780601f106114045761010080835404028352916020019161142f565b820191906000526020600020905b81548152906001019060200180831161141257829003601f168201915b505050505083600301548460050154612584565b6114fe6040518060600160405280602981526020016146a1602991396008600001805461146f90613eb8565b80601f016020809104026020016040519081016040528092919081815260200182805461149b90613eb8565b80156114e85780601f106114bd576101008083540402835291602001916114e8565b820191906000526020600020905b8154815290600101906020018083116114cb57829003601f168201915b5050505050600860020154600860040154612584565b6000816003015411611545576040517f08c379a000000000000000000000000000000000000000000000000000000000815260040161153c90613ad3565b60405180910390fd5b60006008600201541161158d576040517f08c379a000000000000000000000000000000000000000000000000000000000815260040161158490613a33565b60405180910390fd5b806005015460086002015410156115ae5760006008600201819055506115cd565b80600501546008600201546115c39190613dce565b6008600201819055505b600860040154816003015410156115ed576000816003018190555061160b565b60086004015481600301546116029190613dce565b81600301819055505b61163260405180606001604052806031815260200161463060319139600860020154612626565b6116586040518060600160405280603781526020016146fa603791398260030154612626565b7f838ab28464562786a6c4ab2311964b82fa60bd9b14aa7e856af1f3f18d41a4146008600201548260030154604051611692929190613be1565b60405180910390a15050565b6000600560008473ffffffffffffffffffffffffffffffffffffffff1673ffffffffffffffffffffffffffffffffffffffff16815260200190815260200160002060008373ffffffffffffffffffffffffffffffffffffffff1673ffffffffffffffffffffffffffffffffffffffff16815260200190815260200160002060009054906101000a900460ff16905092915050565b600061173e60066126c2565b905061174a33826126d0565b6040518060c0016040528083815260200160078481548110611795577f4e487b7100000000000000000000000000000000000000000000000000000000600052603260045260246000fd5b906000526020600020906006020160010180546117b190613eb8565b80601f01602080910402602001604051908101604052809291908181526020018280546117dd90613eb8565b801561182a5780601f106117ff5761010080835404028352916020019161182a565b820191906000526020600020905b81548152906001019060200180831161180d57829003601f168201915b505050505081526020016007848154811061186e577f4e487b7100000000000000000000000000000000000000000000000000000000600052603260045260246000fd5b9060005260206000209060060201600201805461188a90613eb8565b80601f01602080910402602001604051908101604052809291908181526020018280546118b690613eb8565b80156119035780601f106118d857610100808354040283529160200191611903565b820191906000526020600020905b8154815290600101906020018083116118e657829003601f168201915b5050505050815260200160078481548110611947577f4e487b7100000000000000000000000000000000000000000000000000000000600052603260045260246000fd5b906000526020600020906006020160030154815260200160078481548110611998577f4e487b7100000000000000000000000000000000000000000000000000000000600052603260045260246000fd5b9060005260206000209060060201600401548152602001600784815481106119e9577f4e487b7100000000000000000000000000000000000000000000000000000000600052603260045260246000fd5b906000526020600020906006020160050154815250600d6000838152602001908152602001600020600082015181600001556020820151816001019080519060200190611a37929190612c80565b506040820151816002019080519060200190611a54929190612c80565b50606082015181600301556080820151816004015560a08201518160050155905050611a996040518060600160405280603081526020016146ca6030913982846126ee565b80600e60003373ffffffffffffffffffffffffffffffffffffffff1673ffffffffffffffffffffffffffffffffffffffff16815260200190815260200160002081905550611ae76006611bc8565b7f4bc303fd457a97b4691b9af582ce71868a3d258638c8d4f8c60988a0f0bfb8cd338284604051611b1a93929190613761565b60405180910390a15050565b611bc284848484604051602401611b4094939291906137f7565b6040516020818303038152906040527f8d142cdd000000000000000000000000000000000000000000000000000000007bffffffffffffffffffffffffffffffffffffffffffffffffffffffff19166020820180517bffffffffffffffffffffffffffffffffffffffffffffffffffffffff838183161783525050505061278d565b50505050565b6001816000016000828254019250508190555050565b60007f01ffc9a7000000000000000000000000000000000000000000000000000000007bffffffffffffffffffffffffffffffffffffffffffffffffffffffff1916827bffffffffffffffffffffffffffffffffffffffffffffffffffffffff1916149050919050565b611c51816127b6565b611c90576040517f08c379a0000000000000000000000000000000000000000000000000000000008152600401611c8790613a93565b60405180910390fd5b50565b600033905090565b816004600083815260200190815260200160002060006101000a81548173ffffffffffffffffffffffffffffffffffffffff021916908373ffffffffffffffffffffffffffffffffffffffff160217905550808273ffffffffffffffffffffffffffffffffffffffff16611d0e8361089e565b73ffffffffffffffffffffffffffffffffffffffff167f8c5be1e5ebec7d5bd14f71427d1e84f3dd0314c0f7b2291e5b200ac8c7c3b92560405160405180910390a45050565b600080611d608361089e565b90508073ffffffffffffffffffffffffffffffffffffffff168473ffffffffffffffffffffffffffffffffffffffff161480611da25750611da1818561169e565b5b80611de057508373ffffffffffffffffffffffffffffffffffffffff16611dc8846106c0565b73ffffffffffffffffffffffffffffffffffffffff16145b91505092915050565b8273ffffffffffffffffffffffffffffffffffffffff16611e098261089e565b73ffffffffffffffffffffffffffffffffffffffff1614611e5f576040517f08c379a0000000000000000000000000000000000000000000000000000000008152600401611e5690613993565b60405180910390fd5b600073ffffffffffffffffffffffffffffffffffffffff168273ffffffffffffffffffffffffffffffffffffffff161415611ecf576040517f08c379a0000000000000000000000000000000000000000000000000000000008152600401611ec6906139d3565b60405180910390fd5b611eda838383612822565b611ee5600082611c9b565b6001600360008573ffffffffffffffffffffffffffffffffffffffff1673ffffffffffffffffffffffffffffffffffffffff1681526020019081526020016000206000828254611f359190613dce565b925050819055506001600360008473ffffffffffffffffffffffffffffffffffffffff1673ffffffffffffffffffffffffffffffffffffffff1681526020019081526020016000206000828254611f8c9190613ced565b92505081905550816002600083815260200190815260200160002060006101000a81548173ffffffffffffffffffffffffffffffffffffffff021916908373ffffffffffffffffffffffffffffffffffffffff160217905550808273ffffffffffffffffffffffffffffffffffffffff168473ffffffffffffffffffffffffffffffffffffffff167fddf252ad1be2c89b69c2b068fc378daa952ba7f163c4a11628f55a4df523b3ef60405160405180910390a461204b838383612827565b505050565b8173ffffffffffffffffffffffffffffffffffffffff168373ffffffffffffffffffffffffffffffffffffffff1614156120bf576040517f08c379a00000000000000000000000000000000000000000000000000000000081526004016120b6906139f3565b60405180910390fd5b80600560008573ffffffffffffffffffffffffffffffffffffffff1673ffffffffffffffffffffffffffffffffffffffff16815260200190815260200160002060008473ffffffffffffffffffffffffffffffffffffffff1673ffffffffffffffffffffffffffffffffffffffff16815260200190815260200160002060006101000a81548160ff0219169083151502179055508173ffffffffffffffffffffffffffffffffffffffff168373ffffffffffffffffffffffffffffffffffffffff167f17307eab39ab6107e8899845ad3d59bd9653f200f220920489ca2b5937696c31836040516121b091906137ba565b60405180910390a3505050565b6121c8848484611de9565b6121d48484848461282c565b612213576040517f08c379a000000000000000000000000000000000000000000000000000000000815260040161220a90613973565b60405180910390fd5b50505050565b60606000821415612261576040518060400160405280600181526020017f300000000000000000000000000000000000000000000000000000000000000081525090506123c1565b600082905060005b6000821461229357808061227c90613f1b565b915050600a8261228c9190613d43565b9150612269565b60008167ffffffffffffffff8111156122d5577f4e487b7100000000000000000000000000000000000000000000000000000000600052604160045260246000fd5b6040519080825280601f01601f1916602001820160405280156123075781602001600182028036833780820191505090505b5090505b600085146123ba576001826123209190613dce565b9150600a8561232f9190613f64565b603061233b9190613ced565b60f81b818381518110612377577f4e487b7100000000000000000000000000000000000000000000000000000000600052603260045260246000fd5b60200101907effffffffffffffffffffffffffffffffffffffffffffffffffffffffffffff1916908160001a905350600a856123b39190613d43565b945061230b565b8093505050505b919050565b606060008251905060008114156123ef576040518060200160405280600081525091505061257f565b600060036002836124009190613ced565b61240a9190613d43565b60046124169190613d74565b905060006020826124279190613ced565b67ffffffffffffffff811115612466577f4e487b7100000000000000000000000000000000000000000000000000000000600052604160045260246000fd5b6040519080825280601f01601f1916602001820160405280156124985781602001600182028036833780820191505090505b5090506000604051806060016040528060408152602001614661604091399050600181016020830160005b8681101561253c5760038101905062ffffff818a015116603f8160121c168401518060081b905060ff603f83600c1c1686015116810190508060081b905060ff603f8360061c1686015116810190508060081b905060ff603f831686015116810190508060e01b905080845260048401935050506124c3565b506003860660018114612556576002811461256657612571565b613d3d60f01b6002830352612571565b603d60f81b60018303525b508484525050819450505050505b919050565b6126208484848460405160240161259e9493929190613851565b6040516020818303038152906040527fd5cf17d0000000000000000000000000000000000000000000000000000000007bffffffffffffffffffffffffffffffffffffffffffffffffffffffff19166020820180517bffffffffffffffffffffffffffffffffffffffffffffffffffffffff838183161783525050505061278d565b50505050565b6126be828260405160240161263c929190613905565b6040516020818303038152906040527f9710a9d0000000000000000000000000000000000000000000000000000000007bffffffffffffffffffffffffffffffffffffffffffffffffffffffff19166020820180517bffffffffffffffffffffffffffffffffffffffffffffffffffffffff838183161783525050505061278d565b5050565b600081600001549050919050565b6126ea8282604051806020016040528060008152506129c3565b5050565b61278883838360405160240161270693929190613935565b6040516020818303038152906040527f969cdd03000000000000000000000000000000000000000000000000000000007bffffffffffffffffffffffffffffffffffffffffffffffffffffffff19166020820180517bffffffffffffffffffffffffffffffffffffffffffffffffffffffff838183161783525050505061278d565b505050565b60008151905060006a636f6e736f6c652e6c6f679050602083016000808483855afa5050505050565b60008073ffffffffffffffffffffffffffffffffffffffff166002600084815260200190815260200160002060009054906101000a900473ffffffffffffffffffffffffffffffffffffffff1673ffffffffffffffffffffffffffffffffffffffff1614159050919050565b505050565b505050565b600061284d8473ffffffffffffffffffffffffffffffffffffffff16612a1e565b156129b6578373ffffffffffffffffffffffffffffffffffffffff1663150b7a02612876611c93565b8786866040518563ffffffff1660e01b81526004016128989493929190613715565b602060405180830381600087803b1580156128b257600080fd5b505af19250505080156128e357506040513d601f19601f820116820180604052508101906128e09190612fc4565b60015b612966573d8060008114612913576040519150601f19603f3d011682016040523d82523d6000602084013e612918565b606091505b5060008151141561295e576040517f08c379a000000000000000000000000000000000000000000000000000000000815260040161295590613973565b60405180910390fd5b805181602001fd5b63150b7a0260e01b7bffffffffffffffffffffffffffffffffffffffffffffffffffffffff1916817bffffffffffffffffffffffffffffffffffffffffffffffffffffffff1916149150506129bb565b600190505b949350505050565b6129cd8383612a41565b6129da600084848461282c565b612a19576040517f08c379a0000000000000000000000000000000000000000000000000000000008152600401612a1090613973565b60405180910390fd5b505050565b6000808273ffffffffffffffffffffffffffffffffffffffff163b119050919050565b600073ffffffffffffffffffffffffffffffffffffffff168273ffffffffffffffffffffffffffffffffffffffff161415612ab1576040517f08c379a0000000000000000000000000000000000000000000000000000000008152600401612aa890613a73565b60405180910390fd5b612aba816127b6565b15612afa576040517f08c379a0000000000000000000000000000000000000000000000000000000008152600401612af1906139b3565b60405180910390fd5b612b0660008383612822565b6001600360008473ffffffffffffffffffffffffffffffffffffffff1673ffffffffffffffffffffffffffffffffffffffff1681526020019081526020016000206000828254612b569190613ced565b92505081905550816002600083815260200190815260200160002060006101000a81548173ffffffffffffffffffffffffffffffffffffffff021916908373ffffffffffffffffffffffffffffffffffffffff160217905550808273ffffffffffffffffffffffffffffffffffffffff16600073ffffffffffffffffffffffffffffffffffffffff167fddf252ad1be2c89b69c2b068fc378daa952ba7f163c4a11628f55a4df523b3ef60405160405180910390a4612c1760008383612827565b5050565b6040518060a0016040528060608152602001606081526020016000815260200160008152602001600081525090565b6040518060c001604052806000815260200160608152602001606081526020016000815260200160008152602001600081525090565b828054612c8c90613eb8565b90600052602060002090601f016020900481019282612cae5760008555612cf5565b82601f10612cc757805160ff1916838001178555612cf5565b82800160010185558215612cf5579182015b82811115612cf4578251825591602001919060010190612cd9565b5b509050612d029190612d06565b5090565b5b80821115612d1f576000816000905550600101612d07565b5090565b6000612d36612d3184613c2f565b613c0a565b905082815260208101848484011115612d4e57600080fd5b612d59848285613e76565b509392505050565b600081359050612d70816145d3565b92915050565b600081359050612d85816145ea565b92915050565b600081359050612d9a81614601565b92915050565b600081519050612daf81614601565b92915050565b600082601f830112612dc657600080fd5b8135612dd6848260208601612d23565b91505092915050565b600081359050612dee81614618565b92915050565b600060208284031215612e0657600080fd5b6000612e1484828501612d61565b91505092915050565b60008060408385031215612e3057600080fd5b6000612e3e85828601612d61565b9250506020612e4f85828601612d61565b9150509250929050565b600080600060608486031215612e6e57600080fd5b6000612e7c86828701612d61565b9350506020612e8d86828701612d61565b9250506040612e9e86828701612ddf565b9150509250925092565b60008060008060808587031215612ebe57600080fd5b6000612ecc87828801612d61565b9450506020612edd87828801612d61565b9350506040612eee87828801612ddf565b925050606085013567ffffffffffffffff811115612f0b57600080fd5b612f1787828801612db5565b91505092959194509250565b60008060408385031215612f3657600080fd5b6000612f4485828601612d61565b9250506020612f5585828601612d76565b9150509250929050565b60008060408385031215612f7257600080fd5b6000612f8085828601612d61565b9250506020612f9185828601612ddf565b9150509250929050565b600060208284031215612fad57600080fd5b6000612fbb84828501612d8b565b91505092915050565b600060208284031215612fd657600080fd5b6000612fe484828501612da0565b91505092915050565b600060208284031215612fff57600080fd5b600061300d84828501612ddf565b91505092915050565b600061302283836134f5565b905092915050565b61303381613e02565b82525050565b600061304482613c70565b61304e8185613c9e565b93508360208202850161306085613c60565b8060005b8581101561309c578484038952815161307d8582613016565b945061308883613c91565b925060208a01995050600181019050613064565b50829750879550505050505092915050565b6130b781613e14565b82525050565b60006130c882613c7b565b6130d28185613caf565b93506130e2818560208601613e85565b6130eb81614051565b840191505092915050565b600061310182613c86565b61310b8185613cc0565b935061311b818560208601613e85565b61312481614051565b840191505092915050565b600061313a82613c86565b6131448185613cd1565b9350613154818560208601613e85565b61315d81614051565b840191505092915050565b600061317382613c86565b61317d8185613ce2565b935061318d818560208601613e85565b80840191505092915050565b60006131a6606683613ce2565b91506131b182614062565b606682019050919050565b60006131c9600b83613ce2565b91506131d4826140fd565b600b82019050919050565b60006131ec603283613cd1565b91506131f782614126565b604082019050919050565b600061320f602583613cd1565b915061321a82614175565b604082019050919050565b6000613232601c83613cd1565b915061323d826141c4565b602082019050919050565b6000613255600e83613ce2565b9150613260826141ed565b600e82019050919050565b6000613278602483613cd1565b915061328382614216565b604082019050919050565b600061329b601983613cd1565b91506132a682614265565b602082019050919050565b60006132be602983613cd1565b91506132c98261428e565b604082019050919050565b60006132e1602783613cd1565b91506132ec826142dd565b604082019050919050565b6000613304600483613ce2565b915061330f8261432c565b600482019050919050565b6000613327603e83613cd1565b915061333282614355565b604082019050919050565b600061334a602083613cd1565b9150613355826143a4565b602082019050919050565b600061336d600a83613ce2565b9150613378826143cd565b600a82019050919050565b6000613390603c83613ce2565b915061339b826143f6565b603c82019050919050565b60006133b3601883613cd1565b91506133be82614445565b602082019050919050565b60006133d6602183613cd1565b91506133e18261446e565b604082019050919050565b60006133f9602d83613cd1565b9150613404826144bd565b604082019050919050565b600061341c601d83613ce2565b91506134278261450c565b601d82019050919050565b600061343f602d83613ce2565b915061344a82614535565b602d82019050919050565b6000613462602e83613cd1565b915061346d82614584565b604082019050919050565b600060a083016000830151848203600086015261349582826130f6565b915050602083015184820360208601526134af82826130f6565b91505060408301516134c46040860182613615565b5060608301516134d76060860182613615565b5060808301516134ea6080860182613615565b508091505092915050565b600060c08301600083015161350d6000860182613615565b506020830151848203602086015261352582826130f6565b9150506040830151848203604086015261353f82826130f6565b91505060608301516135546060860182613615565b5060808301516135676080860182613615565b5060a083015161357a60a0860182613615565b508091505092915050565b600060c08301600083015161359d6000860182613615565b50602083015184820360208601526135b582826130f6565b915050604083015184820360408601526135cf82826130f6565b91505060608301516135e46060860182613615565b5060808301516135f76080860182613615565b5060a083015161360a60a0860182613615565b508091505092915050565b61361e81613e6c565b82525050565b61362d81613e6c565b82525050565b600061363e82613360565b915061364a8289613168565b9150613655826131bc565b91506136618288613168565b915061366c82613199565b91506136788287613168565b915061368382613383565b915061368f8286613168565b915061369a82613248565b91506136a68285613168565b91506136b182613432565b91506136bd8284613168565b91506136c8826132f7565b9150819050979650505050505050565b60006136e38261340f565b91506136ef8284613168565b915081905092915050565b600060208201905061370f600083018461302a565b92915050565b600060808201905061372a600083018761302a565b613737602083018661302a565b6137446040830185613624565b818103606083015261375681846130bd565b905095945050505050565b6000606082019050613776600083018661302a565b6137836020830185613624565b6137906040830184613624565b949350505050565b600060208201905081810360008301526137b28184613039565b905092915050565b60006020820190506137cf60008301846130ae565b92915050565b600060208201905081810360008301526137ef818461312f565b905092915050565b60006080820190508181036000830152613811818761312f565b90508181036020830152613825818661312f565b90506138346040830185613624565b8181036060830152613846818461312f565b905095945050505050565b6000608082019050818103600083015261386b818761312f565b9050818103602083015261387f818661312f565b905061388e6040830185613624565b61389b6060830184613624565b95945050505050565b600060a08201905081810360008301526138be818861312f565b905081810360208301526138d2818761312f565b90506138e16040830186613624565b6138ee6060830185613624565b6138fb6080830184613624565b9695505050505050565b6000604082019050818103600083015261391f818561312f565b905061392e6020830184613624565b9392505050565b6000606082019050818103600083015261394f818661312f565b905061395e6020830185613624565b61396b6040830184613624565b949350505050565b6000602082019050818103600083015261398c816131df565b9050919050565b600060208201905081810360008301526139ac81613202565b9050919050565b600060208201905081810360008301526139cc81613225565b9050919050565b600060208201905081810360008301526139ec8161326b565b9050919050565b60006020820190508181036000830152613a0c8161328e565b9050919050565b60006020820190508181036000830152613a2c816132b1565b9050919050565b60006020820190508181036000830152613a4c816132d4565b9050919050565b60006020820190508181036000830152613a6c8161331a565b9050919050565b60006020820190508181036000830152613a8c8161333d565b9050919050565b60006020820190508181036000830152613aac816133a6565b9050919050565b60006020820190508181036000830152613acc816133c9565b9050919050565b60006020820190508181036000830152613aec816133ec565b9050919050565b60006020820190508181036000830152613b0c81613455565b9050919050565b60006020820190508181036000830152613b2d8184613478565b905092915050565b60006020820190508181036000830152613b4f8184613585565b905092915050565b6000602082019050613b6c6000830184613624565b92915050565b600060c082019050613b876000830189613624565b8181036020830152613b99818861312f565b90508181036040830152613bad818761312f565b9050613bbc6060830186613624565b613bc96080830185613624565b613bd660a0830184613624565b979650505050505050565b6000604082019050613bf66000830185613624565b613c036020830184613624565b9392505050565b6000613c14613c25565b9050613c208282613eea565b919050565b6000604051905090565b600067ffffffffffffffff821115613c4a57613c49614022565b5b613c5382614051565b9050602081019050919050565b6000819050602082019050919050565b600081519050919050565b600081519050919050565b600081519050919050565b6000602082019050919050565b600082825260208201905092915050565b600082825260208201905092915050565b600082825260208201905092915050565b600082825260208201905092915050565b600081905092915050565b6000613cf882613e6c565b9150613d0383613e6c565b9250827fffffffffffffffffffffffffffffffffffffffffffffffffffffffffffffffff03821115613d3857613d37613f95565b5b828201905092915050565b6000613d4e82613e6c565b9150613d5983613e6c565b925082613d6957613d68613fc4565b5b828204905092915050565b6000613d7f82613e6c565b9150613d8a83613e6c565b9250817fffffffffffffffffffffffffffffffffffffffffffffffffffffffffffffffff0483118215151615613dc357613dc2613f95565b5b828202905092915050565b6000613dd982613e6c565b9150613de483613e6c565b925082821015613df757613df6613f95565b5b828203905092915050565b6000613e0d82613e4c565b9050919050565b60008115159050919050565b60007fffffffff0000000000000000000000000000000000000000000000000000000082169050919050565b600073ffffffffffffffffffffffffffffffffffffffff82169050919050565b6000819050919050565b82818337600083830152505050565b60005b83811015613ea3578082015181840152602081019050613e88565b83811115613eb2576000848401525b50505050565b60006002820490506001821680613ed057607f821691505b60208210811415613ee457613ee3613ff3565b5b50919050565b613ef382614051565b810181811067ffffffffffffffff82111715613f1257613f11614022565b5b80604052505050565b6000613f2682613e6c565b91507fffffffffffffffffffffffffffffffffffffffffffffffffffffffffffffffff821415613f5957613f58613f95565b5b600182019050919050565b6000613f6f82613e6c565b9150613f7a83613e6c565b925082613f8a57613f89613fc4565b5b828206905092915050565b7f4e487b7100000000000000000000000000000000000000000000000000000000600052601160045260246000fd5b7f4e487b7100000000000000000000000000000000000000000000000000000000600052601260045260246000fd5b7f4e487b7100000000000000000000000000000000000000000000000000000000600052602260045260246000fd5b7f4e487b7100000000000000000000000000000000000000000000000000000000600052604160045260246000fd5b6000601f19601f8301169050919050565b7f222c20226465736372697074696f6e223a2022546869732069732061204e465460008201527f207468617420676976657320796f752061636365737320746f2074686520576960208201527f636b65642057697a617264732067616d652e20456e6a6f7921222c2022696d6160408201527f6765223a20220000000000000000000000000000000000000000000000000000606082015250565b7f202d2d204e465420233a20000000000000000000000000000000000000000000600082015250565b7f4552433732313a207472616e7366657220746f206e6f6e20455243373231526560008201527f63656976657220696d706c656d656e7465720000000000000000000000000000602082015250565b7f4552433732313a207472616e736665722066726f6d20696e636f72726563742060008201527f6f776e6572000000000000000000000000000000000000000000000000000000602082015250565b7f4552433732313a20746f6b656e20616c7265616479206d696e74656400000000600082015250565b7f2c20226d61785f76616c7565223a000000000000000000000000000000000000600082015250565b7f4552433732313a207472616e7366657220746f20746865207a65726f2061646460008201527f7265737300000000000000000000000000000000000000000000000000000000602082015250565b7f4552433732313a20617070726f766520746f2063616c6c657200000000000000600082015250565b7f4552433732313a2061646472657373207a65726f206973206e6f74206120766160008201527f6c6964206f776e65720000000000000000000000000000000000000000000000602082015250565b7f4572726f723a20626f7373206d757374206861766520485020746f206265206160008201527f747461636b656400000000000000000000000000000000000000000000000000602082015250565b7f7d205d7d00000000000000000000000000000000000000000000000000000000600082015250565b7f4552433732313a20617070726f76652063616c6c6572206973206e6f7420746f60008201527f6b656e206f776e6572206e6f7220617070726f76656420666f7220616c6c0000602082015250565b7f4552433732313a206d696e7420746f20746865207a65726f2061646472657373600082015250565b7f7b226e616d65223a202200000000000000000000000000000000000000000000600082015250565b7f222c202261747472696275746573223a205b207b202274726169745f7479706560008201527f223a20224865616c746820506f696e7473222c202276616c7565223a00000000602082015250565b7f4552433732313a20696e76616c696420746f6b656e2049440000000000000000600082015250565b7f4552433732313a20617070726f76616c20746f2063757272656e74206f776e6560008201527f7200000000000000000000000000000000000000000000000000000000000000602082015250565b7f4572726f723a20706c61796572206d757374206861766520485020746f20617460008201527f7461636b2074686520626f737300000000000000000000000000000000000000602082015250565b7f646174613a6170706c69636174696f6e2f6a736f6e3b6261736536342c000000600082015250565b7f7d2c207b202274726169745f74797065223a202241747461636b2044616d616760008201527f65222c202276616c7565223a2000000000000000000000000000000000000000602082015250565b7f4552433732313a2063616c6c6572206973206e6f7420746f6b656e206f776e6560008201527f72206e6f7220617070726f766564000000000000000000000000000000000000602082015250565b6145dc81613e02565b81146145e757600080fd5b50565b6145f381613e14565b81146145fe57600080fd5b50565b61460a81613e20565b811461461557600080fd5b50565b61462181613e6c565b811461462c57600080fd5b5056fe506c61796572206861732061747461636b656420426f73732e20426f7373206e6f7720686173202573204850206c6566744142434445464748494a4b4c4d4e4f505152535455565758595a6162636465666768696a6b6c6d6e6f707172737475767778797a303132333435363738392b2f426f73732025732068617320257320485020616e64202573206f662061747461636b2064616d6167654e4654206d696e746564207769746820746f6b656e496420257320616e6420636861726163746572496e646578202573426f7373206861732061747461636b65642074686520706c617965722e20506c61796572206e6f7720686173202573204850206c6566740a506c61796572206f662063686172616374657220257320697320676f696e6720746f2061747461636b2e2048652068617320257320485020616e64202573206f662061747461636b2064616d616765a2646970667358221220a400759b659148b0d67c27b73ae6b090e81327d14cdb7ccfb9bdc071f215051064736f6c6343000804003343686172616374657220637265617465643a20257320636f6d2025732064652048502c20696d67202573426f737320696e697469616c697a65642077697468207375636365737320257320776974682048502025732c20696d67202573",
  "linkReferences": {},
  "deployedLinkReferences": {}
}